:020000020000fc
:0100000003fc
:0100010000fe
:0100020002fb
:0100030001fb
:0100040000fb
:0100050002f8
:0100060003f6
:0100070000f8
:0100080003f4
:0100090003f3
:01000a0002f3
:01000b0003f1
:01000c0000f3
:01000d0001f1
:01000e0000f1
:01000f0000f0
:0100100003ec
:0100110002ec
:0100120002eb
:0100130001eb
:0100140003e8
:0100150002e8
:0100160002e7
:0100170003e5
:0100180002e5
:0100190003e3
:01001a0001e4
:01001b0001e3
:01001c0003e0
:01001d0002e0
:01001e0002df
:01001f0000e0
:0100200001de
:0100210003db
:0100220000dd
:0100230003d9
:0100240000db
:0100250000da
:0100260001d8
:0100270000d8
:0100280001d6
:0100290003d3
:01002a0000d5
:01002b0000d4
:01002c0000d3
:01002d0003cf
:01002e0000d1
:01002f0003cd
:0100300002cd
:0100310003cb
:0100320003ca
:0100330003c9
:0100340002c9
:0100350000ca
:0100360001c8
:0100370003c5
:0100380000c7
:0100390003c3
:01003a0000c5
:01003b0001c3
:01003c0000c3
:01003d0002c0
:01003e0001c0
:01003f0003bd
:0100400000bf
:0100410003bb
:0100420002bb
:0100430001bb
:0100440003b8
:0100450003b7
:0100460000b9
:0100470000b8
:0100480001b6
:0100490001b5
:01004a0001b4
:01004b0003b1
:01004c0003b0
:01004d0001b1
:01004e0002af
:01004f0003ad
:0100500003ac
:0100510001ad
:0100520001ac
:0100530000ac
:0100540003a8
:0100550001a9
:0100560003a6
:0100570000a8
:0100580001a6
:0100590001a5
:01005a0001a4
:01005b0001a3
:01005c0002a1
:01005d00039f
:01005e0001a0
:01005f0000a0
:01006000039c
:01006100039b
:01006200009d
:01006300029a
:010064000398
:010065000199
:010066000099
:010067000296
:010068000394
:010069000393
:01006a000392
:01006b000391
:01006c000390
:01006d000092
:01006e000091
:01006f00028e
:01007000008f
:01007100028c
:01007200008d
:010073000389
:010074000289
:010075000387
:010076000287
:010077000088
:010078000186
:010079000185
:01007a000085
:01007b000282
:01007c000281
:01007d000181
:01007e00037e
:01007f00037d
:01008000007f
:01008100017d
:01008200017c
:010083000379
:010084000378
:010085000377
:010086000277
:010087000177
:010088000077
:010089000175
:01008a000372
:01008b000173
:01008c000370
:01008d000072
:01008e00036e
:01008f00026e
:01009000026d
:01009100026c
:01009200016c
:010093000369
:010094000269
:010095000268
:010096000069
:010097000365
:010098000364
:010099000165
:01009a000065
:01009b000163
:01009c000261
:01009d00035f
:01009e00025f
:01009f00035d
:0100a000035c
:0100a100005e
:0100a200005d
:0100a3000359
:0100a400015a
:0100a5000159
:0100a6000059
:0100a7000355
:0100a8000354
:0100a9000254
:0100aa000352
:0100ab000351
:0100ac000251
:0100ad000052
:0100ae00034e
:0100af00034d
:0100b000024d
:0100b100014d
:0100b200024b
:0100b3000349
:0100b4000348
:0100b5000347
:0100b6000049
:0100b7000345
:0100b8000344
:0100b9000145
:0100ba000243
:0100bb000143
:0100bc000142
:0100bd00033f
:0100be000140
:0100bf00013f
:0100c000013e
:0100c100033b
:0100c200023b
:0100c3000339
:0100c4000239
:0100c5000139
:0100c6000138
:0100c7000038
:0100c8000334
:0100c9000036
:0100ca000332
:0100cb000331
:0100cc000132
:0100cd000230
:0100ce00032e
:0100cf00022e
:0100d000012e
:0100d100012d
:0100d200022b
:0100d3000329
:0100d4000328
:0100d500002a
:0100d6000128
:0100d7000028
:0100d8000126
:0100d9000323
:0100da000322
:0100db000222
:0100dc000320
:0100dd00031f
:0100de000021
:0100df00031d
:0100e000031c
:0100e100011d
:0100e200031a
:0100e300001c
:0100e4000318
:0100e5000119
:0100e6000316
:0100e7000117
:0100e8000017
:0100e9000214
:0100ea000312
:0100eb000212
:0100ec000310
:0100ed000111
:0100ee00020f
:0100ef00020e
:0100f000030c
:0100f100010d
:0100f200020b
:0100f300020a
:0100f4000209
:0100f5000208
:0100f6000009
:0100f7000206
:0100f8000304
:0100f9000105
:0100fa000104
:0100fb000301
:0100fc000003
:0100fd0003ff
:0100fe000001
:0100ff0001ff
:00000001FF
